:020000040800F2
:10000000882E0020C901000877310008AD2E0008B5
:10001000753100080304000857550008000000006F
:100020000000000000000000000000000136000891
:100030007705000800000000253500080336000899
:10004000E3010008E3010008E3010008E301000800
:10005000E3010008E3010008E3010008E3010008F0
:10006000E3010008E3010008E3010008E3010008E0
:10007000E3010008E3010008010500080D05000880
:10008000E301000841050008E3010008E30100085E
:1000900079540008E3010008E3010008E3010008C7
:1000A000E3010008E3010008E3010008E3010008A0
:1000B00095360008E3010008E3010008E3010008A9
:1000C000E3010008E3010008E3010008E301000880
:1000D000E30100084D3D0008E3010008E3010008CA
:1000E000E3010008E3010008E301000800F002F862
:1000F00000F05AF80AA090E8000C82448344AAF168
:100100000107DA4501D100F04FF8AFF2090EBAE865
:100110000F0013F0010F18BFFB1A43F0010318473B
:10012000B0690000D06900000A444FF0000C10F8DC
:10013000013B13F0070408BF10F8014B1D1108BF65
:1001400010F8015B641E05D010F8016B641E01F805
:10015000016BF9D113F0080F1EBF10F8014BAD1C55
:100160000C1B09D16D1E58BF01F801CBFAD505E073
:1001700014F8016B01F8016B6D1EF9D59142D6D3CD
:10018000704700000023002400250026103A28BFF5
:1001900078C1FBD8520728BF30C148BF0B607047F9
:1001A0001FB51FBD10B510BD00F0F1F81146FFF7E7
:1001B000F7FF05F095FC00F00FF903B4FFF7F2FF2D
:1001C00003BC00F017F900000948804709480047C0
:1001D000FEE7FEE7FEE7FEE7FEE7FEE7FEE7FEE7F7
:1001E000FEE7FEE704480549054A064B7047000054
:1001F00091360008ED000008881A0020882E0020A3
:10020000881E0020881E0020032A40F2308010F053
:10021000030C00F0158011F8013BBCF1020F6244A1
:1002200098BF11F801CB00F8013B38BF11F8013B32
:10023000A2F1040298BF00F801CB38BF00F8013BDF
:1002400011F0030300F02580083AC0F0088051F84F
:10025000043B083A51F804CBA0E80810F5E7121D5A
:100260005CBF51F8043B40F8043BAFF30080D20779
:1002700024BF11F8013B11F801CB48BF11F8012B45
:1002800024BF00F8013B00F801CB48BF00F8012B68
:10029000704710B5203AC0F00B80B1E81850203AF2
:1002A000A0E81850B1E81850A0E81850BFF4F5AF16
:1002B0005FEA027C24BFB1E81850A0E8185044BFA0
:1002C00018C918C0BDE810405FEA827C24BF51F80D
:1002D000043B40F8043B08BF7047D20728BF31F801
:1002E000023B48BF11F8012B28BF20F8023B48BF52
:1002F00000F8012B70474FF000020429C0F0128073
:1003000010F0030C00F01B80CCF1040CBCF1020FC8
:1003100018BF00F8012BA8BF20F8022BA1EB0C019D
:1003200000F00DB85FEAC17C24BF00F8012B00F893
:10033000012B48BF00F8012B70474FF0000200B5B9
:10034000134694469646203922BFA0E80C50A0E8F8
:100350000C50B1F12001BFF4F7AF090728BFA0E8A6
:100360000C5048BF0CC05DF804EB890028BF40F872
:10037000042B08BF704748BF20F8022B11F0804FB4
:1003800018BF00F8012B70477047704770477546DB
:1003900000F02CF8AE4605006946534620F00700F1
:1003A000854618B020B5FFF71DFFBDE820404FF08F
:1003B00000064FF000074FF000084FF0000B21F04F
:1003C0000701AC46ACE8C009ACE8C009ACE8C0091C
:1003D000ACE8C0098D46704710B50446AFF3008005
:1003E0002046BDE81040FFF7E8BE00000048704717
:1003F000281A002001491820ABBEFEE726000200A3
:100400007047FEE7002070470020704710B50022BB
:100410000449054803F0B8FD0449034803F0AEFD64
:10042000002010BD1C10002054060020340C0020B9
:1004300070B50E4605460146244803F09FFD23484B
:1004400003F080FD224CB4F8000118B9FF212046CA
:10045000FFF773FF3268C4F80821B4F80001402A9E
:1004600004EB80101CD02946FFF7CEFEB4F8000143
:10047000D4F8081101EB8011401C80B2C4F80C11B3
:10048000C4F814010020C4F81001FF2184F81811E9
:10049000A4F8000140212846FFF72DFF002070BD81
:1004A00040222946FFF7B0FEB4F80001D4F8081145
:1004B00001EB8011401C80B2C4F80C11A4F80001BB
:1004C000C4F814010520C4F81001E7E75406002021
:1004D000180B0020094A10B5D2F8B822D2F814221D
:1004E0000AB1012010BD0A460146044803F04CFD44
:1004F000BDE81040014803F0A5BD000054060020EF
:10050000014800F0A1BB000000040020094810B51C
:1005100090F8FE11FF2221F0010180F8FE1100F198
:10052000FF01054802F074FCBDE81040034800F0EC
:100530008BBB00004404002074030020BC03002097
:10054000014800F081BB00003003002030B590F876
:1005500040500124AC40C56B6C6004686360436824
:10056000102B036803D099600068C26030BD9A60A8
:100570000068C16030BD704730B5437D0A225B1C06
:10058000B3FBF2F402FB1434057DAC420ED0847D43
:10059000012C0BD00124B3FBF2F402FB14324275A0
:1005A00020F8121000218175012030BD002030BDDF
:1005B0000021072220F81120491CC9B20A29F9D3C9
:1005C00000214175017581757047017D437D0722CA
:1005D000994211D0837D012B0ED0012282750A220F
:1005E000491CB1FBF2F302FB1311017530F8111035
:1005F00000228275084670471046704710B50128E2
:100600004FF0000006D000F0A1FABDE81040012034
:1006100000F068BA00F066FABDE81040012000F072
:1006200095BA10B5122000F00FF80146BDE8104051
:10063000122000F09FB910207047122000F004B87B
:10064000004870478901002008B50122694600F082
:1006500003F89DF8000008BD70B5044615460E4627
:10066000002000F04BFA04F07F0000F053FA002461
:1006700005E0002000F04EFA3055641CE4B2AC42B4
:10068000F7D3BDE87040012000F038BA0148007887
:10069000704700008801002010B500F09BF9002190
:1006A000242000F067F90021084600F087F80021B7
:1006B0000F2000F05FF90020FFF7A0FF402000F0BE
:1006C00089F8FFF7AEFF00F043F9002010BD10B528
:1006D00000F070F9002010BD70B50C46054600F022
:1006E00079F90021242000F045F92146222000F06C
:1006F00041F980210E2000F03DF980210D2000F00D
:1007000039F929462246002000F03AF940210846EE
:1007100000F054F80120FFF771FF082000F05AF8AC
:10072000FFF77FFF00F068F9012000F0B5F9FFF74F
:1007300084FFFF28F8D00007F6D5FFF772FF00F01E
:1007400049F9012000F0F8F9FFF7A6FF002070BD7D
:1007500000B585B00A2000F09FF9002000F0B6F93E
:10076000142000F099F9012000F0B0F9142000F0F5
:1007700093F900F019F800284FF0010010D112226F
:1007800002921421CDE903100623CDE900030123D1
:1007900007220921034800F023F8FFF77DFF00201E
:1007A00005B000BDC0CA893610B501244220FFF74C
:1007B0004BFF122800D10024204610BD10B50C4676
:1007C0000146402000F0D6F82146BDE81040412007
:1007D00000F0D0B8C043C1B2112000F0CBB8000087
:1007E0002DE9FC5F1E46DDE90F4ADDE90C97154651
:1007F0008846834600F0DEF88021012000F0BAF838
:1008000000F0E8F8584605F059FC00224F4B05F07F
:10081000B9FA05F00FFC010C8DF80010010A8DF8F3
:1008200001108DF8020003226946062000F0A8F8A6
:10083000A81F07285CD2062D4FF031005BD0FFF7D0
:1008400003FF00F0F801312011F1030100F092F8EC
:100850001E20FFF7F9FE65F31F10C1B21E2000F045
:1008600089F8701E042843D21D20FFF7EDFE00F02A
:10087000F10040EA4600C1B21D2000F07BF8B9F15A
:10088000010F35D81E20FFF7DFFE00F0FB0141EA23
:100890008900C1B21E2000F06DF8B8F1090F27D809
:1008A0001D20FFF7D1FE68F31F10C1B21D2000F01C
:1008B00061F8380A8DF800008DF80170022269464F
:1008C000202000F05DF839200E9900F053F8BAF1BD
:1008D000010F0DD82620FFF7B7FE00F0F70141EA1F
:1008E000CA00C1B2262000F045F8A51E132D09D379
:1008F0000120BDE8FC9FFFF7A7FE00F0F8013120C2
:10090000491DA3E7112C11DB87214D2000F032F89F
:100910000920FFF799FE641FF02104F00F00014346
:10092000092000F027F83B210B200BE084214D200B
:1009300000F020F80920FFF787FE702105F00F0076
:100940000143092000F016F80020D2E780844E40D1
:1009500010B50120FFF778FE00F0F80040F0050127
:10096000012000F007F802490420087010BD0000C3
:100970008801002013B5012201A900F001F81CBD77
:1009800070B5044615460E46002000F0B7F844F056
:10099000800000F0BFF8002404E0305D00F0BAF8F9
:1009A000641CE4B2AC42F8D3BDE87040012000F012
:1009B000A5B8000010B50120FFF746FE00F0F801D1
:1009C0000120FFF7D7FF02490720087010BD000083
:1009D0008801002010B50120FFF736FE00F0F80076
:1009E00040F001010120FFF7C5FF02490220087015
:1009F00010BD00008801002010B50120FFF724FE83
:100A000000F0F80040F003010120FFF7B3FF0249B6
:100A10000620087010BD000088010020704700000B
:100A200070B5FFF70AFEE8B1400617D5FFF7D2FF11
:100A30001020FFF709FE05461320FFF705FE0446C8
:100A400029460D20FFF796FF0749FF220020FFF7F8
:100A500003FE22460449012000F020F8FFF7E1FDE3
:100A6000FFF776FF002070BD27190020014800F035
:100A700003B800001419002000210170417081703A
:100A8000704700224B1E194200D0012281600021D4
:100A9000016041601046704700F0E6B970B5144639
:100AA0000D4610F0010F0CD0064802F0C1F92146A6
:100AB0002846FFF70FFDBDE8704005210248FFF70B
:100AC0005BBD70BD740300202C020020044B012884
:100AD00004D000221021184600F0C8BA0122F9E71C
:100AE00000080140044B012804D0002202211846CE
:100AF00000F0BCBA0122F9E7000C0140044B0128C8
:100B000004D000220121184600F0B0BA0122F9E712
:100B1000000C014001B582B000208DF80400FF20D8
:100B20000090012301AA02A9024801F0ABFB9DF845
:100B300004000EBD9002002010F0010F03D006212A
:100B40000148FFF719BD70472C020020044B012813
:100B500004D000220421184600F088BA0122F9E7E7
:100B6000000C014072B6FEE710B590F8211000228B
:100B7000022905D00421816380F82020012010BDC6
:100B800001680B6823F00E030B6001680B6823F00B
:100B900001030B6090F84030C46B012101FA03F3AC
:100BA000636080F8211080F82020104610BD0000FE
:100BB00010B590F821100024022903D0042181638C
:100BC00001243DE001680A6822F00E020A60016813
:100BD0000A6822F001020A601A4A0168914201D1B2
:100BE000012121E0174A1432914201D110211BE06A
:100BF000144A2832914201D1891515E0114A3C323C
:100C0000914201D189140FE00E4A5032914202D133
:100C10004FF4803108E00B4A6432914202D14FF424
:100C2000801101E04FF08071064A083A51600121BD
:100C300080F82110002180F82010416B01B1884715
:100C4000204610BD080002402DE9F05FC16B0C6822
:100C500001680B68D0F840C0042202FA0CF2494D3A
:100C6000DFF824A1494E4A4FDFF828B1DFF828E128
:100C700022422CD05A072AD50A68920603D40A6861
:100C800022F004020A600168A94201D1042219E09D
:100C9000514501D1402215E0B14202D14FF48062AA
:100CA00010E0B94202D14FF480420BE0594502D125
:100CB0004FF4802206E0714502D14FF4800201E03A
:100CC0004FF080622F4908394A60C16A3BE04FF01B
:100CD000020808FA0CF818EA040F4FF000094FF068
:100CE000010235D05FEA837832D50B689B0605D4C4
:100CF0000B6823F00A030B6080F821200168A942E9
:100D000001D1022219E0514501D1202215E0B14262
:100D100002D14FF4007210E0B94202D14FF40052F8
:100D20000BE0594502D14FF4003206E0714502D183
:100D30004FF4001201E04FF00072124908394A6086
:100D400080F82090816A00291AD0BDE8F05F08473A
:100D5000082505FA0CF5254212D01B0710D50B68A3
:100D600023F00E030B6090F84010C36B02FA01F100
:100D70005960826380F8212080F82090016BE2E7BF
:100D8000BDE8F09F080002401C0002403000024015
:100D900044000240580002406C00024030B528B3C5
:100DA00008C8134914221944B1FBF2F18900C16348
:100DB00010498163022141771A6843F6F0718A4332
:100DC000D0E900142143D0E902452C4321430469B2
:100DD000214344692143846921431143196000215F
:100DE0004163012242770177084630BD012030BDC2
:100DF000F8FFFDBF0000024070B5044690F82000E7
:100E0000002501280CD0012084F8200094F82160EE
:100E10000020012E06D084F820000225284670BD4F
:100E2000022070BD022684F82160A0632068066855
:100E300026F0010606602046FFF788FBE06A0028DE
:100E40002068016802D041F00E0106E021F00401A3
:100E500001602068016841F00A01016020680168B2
:100E600041F001010160D9E770B5044600F004F9D2
:100E70000546601C02D004480078044400F0FCF8E9
:100E8000401BA042FAD370BD640000202DE9F84F4A
:100E9000DFF8B8910024A9F1040B23460F2709F1CC
:100EA000040AABF1040EC9E00125A5402A40AA427C
:100EB0007DD1674ED1F804C0ACEB0608B44532D002
:100EC00014DCBCF1030F3AD009DCBCF1000F2AD0CE
:100ED000BCF1010F1CD0BCF1020F31D11DE0BCF1FF
:100EE000110F17D0BCF1120F2AD119E0B8F5881FE5
:100EF00019D006DCB8F5803F15D0B8F5801F1FD19A
:100F000011E0B8F5001F0ED0B8F5041F18D10AE0A3
:100F1000CB6815E0CB681B1D12E0CB6808330FE0EF
:100F2000CB680C330CE08B682BB1012B4FF008031E
:100F300003D0456104E0042302E0056100E00023E2
:100F4000FF2A01D8064601E000F104064FEA8405B5
:100F500001D9A5F12005D6F8008007FA05FC28EA9A
:100F60000C0803FA05F548EA0508C6F800804D6844
:100F7000ED0062D5374DAE6946F00106AE61AD6950
:100F800024F0030605F001050095334D06EB050C32
:100F9000DCF80850A607360F07FA06F825EA080518
:100FA000DFF8B880404503D14FF0000817E044E077
:100FB000DFF8AC80404502D14FF001080FE0DFF8C8
:100FC000A480404502D14FF0020808E0DFF8988085
:100FD000404502D14FF0030801E04FF0040808FA41
:100FE00006F848EA0508CCF808804D68D9F8006092
:100FF000ED024D4601D5164300E096432E604D6844
:10100000DAF80060AD02554601D5164300E096437C
:101010002E604D68DBF80060AD035D4601D51643D8
:1010200000E096432E604D68DEF80060ED037546E3
:1010300001D5164300E096432E60641C0D682A46D5
:10104000E5407FF431AFBDE8F88F000008040140AF
:101050000000111000100240000001400008014093
:10106000000C014000100140001401400AB1016170
:1010700070470904FBE700000148806870470000E2
:101080006400002070B5040011D021684CF6CC40FB
:101090000860216845F255500860D4E900014160BC
:1010A0002168A0688860FFF7E7FF05460DE0012092
:1010B00070BD00BFFFF7E0FF401B272805D920685F
:1010C000C068800701D0032070BD2068C068800719
:1010D000F0D121684AF6AA200860002070BD00689F
:1010E0004AF6AA210160002070470000024881688A
:1010F000027811448160704764000020074810B5F1
:10110000016841F010010160032000F075F80F2024
:1011100000F006F800F024F8002010BD0020024086
:1011200070B50D4D04464FF47A712878B1FBF0F09C
:101130000A490968B1FBF0F001F09BF948B9102C9D
:1011400007D200222146501E00F036F800206C60C5
:1011500070BD012070BD0000640000207000002000
:101160000C4808B5816941F001018161816901F094
:1011700001010091C16941F08051C161C06900F075
:10118000805000900448416821F0E06141F0007116
:10119000416008BD0010024000000140002809DB4A
:1011A00000F01F02012191404009800000F1E02081
:1011B000C0F8001170470000F0B40E4B1B680C46DD
:1011C000C3F30223C3F10705042D00D90425191D1B
:1011D000072901D2002300E0DB1E012606FA05F1F3
:1011E000491E214099409E40761E16403143F0BC76
:1011F00004F06EBA0CED00E0064900F00702086842
:101200004FF6FF03184040EA0220034A10430860EB
:10121000704700000CED00E00000FA0510B50C0668
:1012200007D501F0070101EB810100EBC100283077
:1012300005E001EB810100EBC10000F5B47099B24B
:1012400032B1012202730181190C4181002010BDCD
:1012500000220273C180F9E7704701EB810200EBC5
:10126000C202D0F8EC02D26B03F09BB801EB810212
:1012700000EBC202D0F8EC02D2F87C2103F0F4B803
:1012800070B504460B0601F0070000EB800104EB8B
:10129000C1014FF001024FF0000503D581F829206C
:1012A000283103E081F8695101F5B471087094F8B0
:1012B000A802012808D084F8A822206803F036FD8F
:1012C00084F8A852002070BD022070BD70B504469D
:1012D00001F00F006268904201D9012070BD0B0639
:1012E00001F0070000EB800104EBC1014FF00102A7
:1012F0004FF0000503D581F82920283103E081F85B
:10130000695101F5B4718D70087094F8A802012834
:1013100008D084F8A822206803F0DEFD84F8A852E3
:10132000002070BD022070BD2DE9F05F04685FEA07
:10133000424C0B788D69B4F850C04FF000064BF664
:101340008F7948F2800A48F68F7B48F2C00E4FF43E
:1013500080672AD54FF0020808EBC308C44407EBA6
:101360004C07E45BC4F30904A54203D32D1B8D6134
:1013700001D00BE08E61066836F8235005EA0905B6
:1013800085F4005545EA0A0526F82350520609D58A
:101390000D78036833F8252002EA0B0242EA0E02B8
:1013A00023F8252084B30A8929E04FF0060808EBCA
:1013B000C308C44407EB4C07E45BC4F30904A5422B
:1013C00003D32D1B8D6101D00BE08E61066836F8CA
:1013D000235005EA090585F4005545EA0A0526F873
:1013E0002350520609D40B78056835F8232002EA09
:1013F0000B0242EA0E0225F823202CB14A894969E2
:101400000068234604F042F82046BDE8F09F2DE92D
:10141000F05F054600680C465FEA426C16468B6931
:101420002278B0F850C048F68F774CF280094FF41C
:10143000004B4FF6FF7E4FF4806A4FF0000172D5EB
:101440004FF0020808EBC208E0440AEB480C30F801
:101450000C00C0F30900834211D91B1AA3610FD0FD
:10146000730407D52E6836F822303B4043EA09035F
:1014700026F8223094F82420012A47D052E1A161B5
:10148000607810B1012813D01AE02868B0F8503005
:10149000184400EB0210B0F80424C2F30902A0F8CB
:1014A0000424B0F8042442F40042A0F8042407E025
:1014B0002868B0F85030184400EB0210A0F804146B
:1014C0006278286812B1012A11D018E0B0F85010E3
:1014D0000844217800EB0110B0F80C14C1F30901A5
:1014E000A0F80C14B0F80C1441F4004105E0B0F879
:1014F00050201044227800EB0210A0F80C14217840
:101500002846FFF7AAFE700472D40BE16269024418
:101510006261E2690244E2612369226A9A4203D36A
:101520001846111A04E03EE084F824100AB110466F
:101530002162617811B1012929D031E02968B1F81F
:1015400050201144227801EB0211B1F80424C2F3B7
:101550000902A1F8042401F204413E2807D94209F6
:10156000C30600D1521E0B884BEA822207E048B125
:101570004208C30700D0521C0B880EEA8222134394
:101580000B800DE00A8842F400420A8008E02968D6
:10159000B1F850201144227801EB0211A1F80404A3
:1015A00083B22289BAE04FF0060808EBC208E04493
:1015B0000AEB480C30F80C00C0F30900834211D349
:1015C0001B1AA3610FD0730407D42E6836F822309B
:1015D0003B4043EA090326F8223094F82420012AEC
:1015E00051D09FE0A161607818B1012814D01BE0B0
:1015F0003FE02868B0F85030184400EB0210B0F813
:101600000424C2F30902A0F80424B0F8042442F42C
:101610000042A0F8042407E02868B0F850301844CD
:1016200000EB0210A0F804146278286812B1012AB5
:1016300011D018E0B0F850100844217800EB0110E8
:10164000B0F80C14C1F30901A0F80C14B0F80C1494
:1016500041F4004105E0B0F850201044227800EB3E
:101660000210A0F80C1421782846FFF7F6FD70044C
:1016700058D42278296831F82200384040EA09001D
:1016800021F822004EE0626902446261E26902448C
:10169000E2612369226A9A4203D31846111A216231
:1016A00004E00AB11046216284F8241062782968A7
:1016B00012B1012A28D02FE0B1F85020114422782D
:1016C00001EB0211B1F80C24C2F30902A1F80C24B9
:1016D00001F20C413E2807D94209C30600D1521E2F
:1016E0000B884BEA822207E048B14208C30700D0CA
:1016F000521C0B880EEA822213430B800CE00A88EE
:1017000042F400420A8007E0B1F8502011442278E8
:1017100001EB0211A1F80C04628983B261692868A7
:1017200003F006FF2278296831F8220048F6BF73DB
:10173000184080F0300048F28003184321F822005E
:101740000020BDE8F09F01F0070101EB810100EBF3
:10175000C100D0F8840170472DE9F04104460F061E
:1017600001F0070000EB800104EBC1014FF001061E
:101770004FF0000503D581F82960283103E081F896
:10178000695101F5B471022B08700A61CB7000D168
:101790000D7194F8A802012809D084F8A862206885
:1017A00003F074F9284684F8A852BDE8F0810220BD
:1017B000FBE710B501F0070404EB840100EBC10165
:1017C000C1E95F230022C1F8842181F8692181F8F1
:1017D0006841006801F5B47103F0D3FB002010BD2F
:1017E00070B504460D4601F007006168884201D9D2
:1017F000012070BD29064FF000064FF0010207D509
:1018000000EB800104EBC10181F82920283107E0B9
:1018100005EB850104EBC10181F8696101F5B47143
:101820008A70087094F8A802012807D084F8A822CA
:10183000206803F08DFB680702D006E0022070BD2F
:1018400004F52C71206803F045FB84F8A8620020A1
:1018500070BD10B501F0070404EB840100EBC10179
:10186000C1E90F23012281F84C208B6400234B64D3
:1018700081F8292001F8284F006803F082FB00203E
:1018800010BD00001FB50446006803F0FBFD010415
:1018900003D5204601F070FC1FBD41050DD5206821
:1018A00030F8441F21F480610180204600F010F9D7
:1018B0000021204600F027F91FBD410405D520680E
:1018C00030F8441F21F4804174E0810405D520687C
:1018D00030F8441F21F400516CE0C10414D5206895
:1018E00030F8401F21F004010180206830F8401FCB
:1018F00021F008010180204600F0FDF8206830F852
:10190000441F21F4805155E0010540D5D4F8002052
:101910000020694632F8203021F81030401CC0B257
:101920000828F7D332F8400F40F0010010802068FB
:1019300030F8402F22F0010202802068B0F84420E5
:101940005205FBD530F8442F22F48062028000203B
:10195000236831F8102023F82020401CC0B208284A
:10196000F6D3206830F8401F41F00801018020685C
:1019700030F8441F21F400610180206830F8401FD6
:1019800041F004010180204600F0F2F81FBD8105FE
:1019900009D5206830F8441F21F4007101802046E9
:1019A00000F0ADF81FBDC005FCD5206830F8441F1D
:1019B00021F4807101801FBD2DE9F04186B0040043
:1019C00004D094F8A902002520B108E0012006B057
:1019D000BDE8F08184F8A852204600F05BF80320AF
:1019E00084F8A902206803F035FA04F110011422EA
:1019F00088466846FEF74DFC94E80F0003F094F922
:101A00000227D0BB0021206803F056FD00200126EC
:101A10000EE000BF00EB800104EBC10181F82960FA
:101A200001F8280F401CCD700D614D61C0B28D6171
:101A300061688142EED8002012E000BF00EB800117
:101A400004EBC10181F8695181F8680181F86B519B
:101A5000C1F87851C1F87C51401CC0B2C1F8805126
:101A600061688142EAD8142241466846FEF711FCBB
:101A700094E80F0003F0E5F910B184F8A972A5E726
:101A800084F8245084F8A962206803F0D8F9002073
:101A90009DE7000008B500680B49884212D10B4849
:101AA000C16941F40001C161C069002200F4000075
:101AB000009011461420FFF77FFBBDE8084014207A
:101AC000FFF76CBB08BD0000005C00400010024046
:101AD00070B5044680680125022801D0FFF742F85E
:101AE0002946D4F8EC0202F0A8FDD4F8EC02BDE8D7
:101AF000704002F064BDD0F8EC0202F088BDD0F86E
:101B0000EC0202F08EBD10B5044690F8A802012840
:101B10000BD0012084F8A80284F82410206803F078
:101B2000CDFC002084F8A80210BD022010BDD0F822
:101B3000EC2200F52C71104602F08BBD10B5044666
:101B400090F8A802012810D0012084F8A80220688B
:101B500003F088FC01212046FFF77EFB206803F09C
:101B60006CF9002084F8A80210BD022010BD00000E
:101B700010B50446D0F8EC0202F0AAFDA0690028D6
:101B800004D00348016841F00601016010BD000067
:101B900010ED00E02DE9F84305460078354CC0070C
:101BA00054D0E0690026C00008D4E06940F08050BD
:101BB000E061E069012600F0805000902E48016845
:101BC000C90512D40168804641F480710160FFF7B5
:101BD00053FA074605E000BFFFF74EFAC01B642822
:101BE00023D8D8F80000C005F6D5206A10F440705C
:101BF00021D0A98801F4407181421CD0206A1F497C
:101C0000012220F440700A6000220A602062C007AE
:101C100011D0FFF731FA074641F2883808E000BFDB
:101C2000FFF72AFAC11B414502D90320BDE8F8831A
:101C3000206A8007F4D5206A696820F44070084360
:101C400020621EB1E06920F08050E06128788007B2
:101C500005D56068A96820F4404008436060287892
:101C6000C00605D56068E96820F48000084360601C
:101C70000020DBE7001002400070004040044242B8
:101C80002DE9F0470F46050061D0434E306800F063
:101C90000700B84209D2306820F0070038433060AE
:101CA000306800F00700B84251D128683B4C8107EA
:101CB00012D5400703D5606840F4E0606060287882
:101CC000000703D5606840F4605060606068A968F0
:101CD00020F0F000084360602878C00728D06868CA
:101CE000012810D02168022810D0890700292EDA97
:101CF000616821F0030101436160FFF7BDF980468F
:101D000041F288390DE021688903EFE78901EDE7A9
:101D1000FFF7B2F9A0EB0801494502D90320BDE85D
:101D2000F0876068696800F00C00B0EB810FEFD1BC
:101D3000306800F00700B8420BD9306820F0070087
:101D400038433060306800F00700B84201D001200D
:101D5000E5E72878400705D56068E96820F4E06089
:101D6000084360602878000706D56068296920F478
:101D7000605040EAC100606000F038F86168084ACD
:101D8000C1F30311515CC840064908600648006869
:101D9000FFF7C6F90020C2E7002002400010024011
:101DA000946A00087000002068000020044805497B
:101DB00000684968044AC1F30221515CC840704779
:101DC0007000002000100240A46A00080448054981
:101DD00000684968044AC1F3C221515CC840704799
:101DE0007000002000100240A46A00080F4A5168E9
:101DF00001F00C00042803D0082803D00C487047D9
:101E00000C4870470C48C1F38343C903C05C0AD532
:101E10005168094AC1F34041921E515C054A504342
:101E2000B0FBF1F07047054948437047001002408D
:101E300000127A000024F400846A000800093D00C2
:101E40002DE9F84F040070D02078C04DC00749D06C
:101E50006868C0F38100012807D06868C0F381007A
:101E6000022809D16868C00306D52868800339D5DF
:101E700060680028E7D035E06068B0F5803F0BD09F
:101E800010B1B0F5A02F11D0286820F48030286060
:101E9000286820F4802002E0286840F48030286020
:101EA000606890B1FFF7E8F806460AE0286840F459
:101EB00080202860F0E700BFFFF7DEF8801B642871
:101EC00073D828688003F7D50CE0FFF7D5F80646ED
:101ED00005E000BFFFF7D0F8801B6428F0D8286821
:101EE0008003F7D420789A4E80074FF001094FF015
:101EF000000839D5686810F00C0F07D06868C0F387
:101F00008100022809D16868C00306D428688007C8
:101F100014D52069012808D110E02069B0B1C6F8B5
:101F20000090FFF7A9F8074605E00AE1FFF7A4F8DB
:101F3000C01B0228C4D828688007F7D528686169C3
:101F400020F0F80040EAC10028600DE0C6F80080EB
:101F5000FFF792F8074604E0FFF78EF8C01B02284F
:101F600023D828688007F7D4207800072CD5794833
:101F7000A169D9B1C0F80090FFF77EF8074604E0E8
:101F8000FFF77AF8C01B02280FD8686A8007F7D5D8
:101F900071484FF4FA510068B0FBF1F0009000BFB7
:101FA0000098411E0091FAD20EE080E0C0F8008057
:101FB000FFF762F8074604E0FFF75EF8C01B02284F
:101FC00075D8686A8007F7D42078400760D5E8693B
:101FD0000027C00008D4E86940F08050E861E86953
:101FE000012700F0805000905C480168C90513D4B7
:101FF0000168834641F480710160FFF73DF8824635
:1020000006E000BFFFF738F8A0EB0A0064284ED8BE
:10201000DBF80000C005F5D5E06801280AD008B15A
:10202000052813D0286A20F001002862286A20F0D1
:10203000040002E0286A40F001002862E06841F2F2
:10204000883B98B1FFF718F882460BE0286A40F009
:1020500004002862EEE700BFFFF70EF8A0EB0A01CC
:1020600059455AD8286A8007F6D50CE0FFF704F8DE
:10207000824605E0FFF700F8A0EB0A0159454CD86D
:10208000286A8007F6D41FB1E86920F08050E86123
:10209000E06988B36968C1F38101022944D002284C
:1020A000C6F8608004D0FEF7E7FF044638E034E06D
:1020B000FEF7E2FF074604E0FEF7DEFFC01B022842
:1020C0002BD828688001F7D4206AB0F5803F05D16D
:1020D0006868A16820F4003008436860D4E908010A
:1020E0000843696821F4741108436860C6F8609079
:1020F000FEF7C2FF044606E025E000BFFEF7BCFF86
:10210000001B022809D828688001F7D51BE000BF12
:10211000FEF7B2FF001B022802D90320BDE8F88FAA
:1021200028688001F4D40EE00128F7D06868226A9C
:1021300000F48031914204D1616A00F47010884249
:1021400001D00120EAE70020E8E70000001002408B
:1021500000004242800442427000002000700040B3
:1021600070B5040009D0606A002540B12561656141
:10217000A56294F8510040B10CE0012070BD606888
:10218000B0F5827FF4D0E561F2E784F85050204644
:1021900000F040F8022084F851002068016821F026
:1021A00040010160A088218900F4827001F404419B
:1021B0000843A18901F400610843217C01F0020178
:1021C0000843217D01F001010843218B01F40071D6
:1021D0000843217F01F03801084394F8201001F0F2
:1021E00080010843218D01F40051084321680860F3
:1021F000A069042101EA1040216848602068C16993
:1022000021F40061C1616565012084F8510000205E
:1022100070BD000030B585B0002400940194029494
:10222000039400681449884223D11448816941F419
:1022300080518161816901F480510491816941F08B
:102240000401816180690E4D00F004000490A0201B
:102250000090022001900320039069462846FEF773
:1022600015FE4020CDE90004694628460294FEF799
:102270000DFE05B030BD00000030014000100240EE
:10228000000801402DE9FF4F81B0044690F850004E
:1022900000260E9F1D4693464FF0010901280FD0DE
:1022A0004FF0010A84F850A0FEF7E6FE804694F84D
:1022B0005100616801280DD0B1F5827F08D103E09B
:1022C000022005B0BDE8F08FA16809B9042801D04B
:1022D0000226C9E00298002865D0BBF1000FFBD0B0
:1022E000002DF9D094F85100042802D0052084F87C
:1022F000510000206065C4F838B0E587A5870299D1
:102300002163E586A586206460642068016849062B
:1023100003D4016841F040010160E068B0F5006F4E
:10232000606803D0F0B3012D47D081E008B1012DE2
:102330003CD1206B21680088C860206B801C206322
:10234000E08E401EE08631E02068816889070FD565
:10235000E18E69B1B9F1010F0AD1216B0988C16021
:10236000206B801C2063E08E401EE0864FF0000949
:1023700020688168C9070CD0E18F51B1C068A16B9A
:102380000880A06B801CA063E08F401EE0874FF0A8
:102390000109FEF771FEA0EB0800B84206D3781CD5
:1023A00004D001E009E05BE003265BE0E08E00285A
:1023B000CAD1E08F0028C7D140E0206B21680078A7
:1023C0000873206B401C2063E08E401EE0862FE0E7
:1023D0002068816889070FD5E18E69B1B9F1010FD5
:1023E0000AD1216B09780173206B401C2063E08EB9
:1023F000401EE0864FF0000920688168C9070CD0B4
:10240000E18F51B1C068A16B0870A06B401CA06344
:10241000E08F401EE0874FF00109FEF72DFEA0EB94
:102420000800B84202D3781C02D0BAE7002FB8D017
:10243000E08E0028CCD1E08F0028C9D14246394631
:10244000204601F070F818B10126202060650BE0ED
:10245000A06818B92068C16880680090606D08B1F4
:10246000012601E084F851A0002084F85000304695
:1024700027E710B5401EB0F1807F01D3012010BDC9
:102480004FF0E02460610F21601703F021F9002074
:10249000A06107202061002010BD70477047000038
:1024A00070B590F83C20012A26D0012480F83C40E9
:1024B000022280F83D2003685A689D6822F0700669
:1024C0000A6832435A600D4B02689A4208D0B2F152
:1024D000804F05D00A4B9A4202D00A4B9A4204D14F
:1024E000496825F080031943916080F83D40002140
:1024F00080F83C10084670BD022070BD002C0140E1
:1025000000040040000800407047704770B5044662
:10251000006801694FF00005C943890715D4C168F7
:10252000C943890711D4E91E016101202077206881
:1025300080698007204602D0FFF7E7FF04E000F043
:10254000BDF8204600F086F9257720680169C94367
:10255000490717D4C168C943490713D46FF0040170
:102560000161022020772068806910F4407F2046B6
:1025700002D0FFF7CAFF04E000F0A0F8204600F008
:1025800069F9257720680169C943090716D4C1682C
:10259000C943090712D46FF00801016104202077B4
:1025A0002068C0698007204602D0FFF7AEFF04E034
:1025B00000F084F8204600F04DF925772068016985
:1025C000C943C90617D4C168C943C90613D46FF0FB
:1025D00010010161082020772068C06910F4407F55
:1025E000204602D0FFF791FF04E000F067F8204694
:1025F00000F030F9257720680169C943C90708D17F
:10260000C168C943C90704D1891E0161204600F091
:10261000EDF920680169C943090609D4C168C943B5
:10262000090605D46FF0800101612046FFF735FFF0
:1026300020680169C943490609D4C168C9434906EC
:1026400005D46FF040010161204600F0D0F9206808
:102650000169C94389060BD4C168C943890607D4F7
:102660006FF0200101612046BDE87040FFF716BF02
:1026700070BD000000B585B000210091019102916C
:1026800003910068B0F1804F11D10A48816941F08F
:10269000040181618069694600F004000490022011
:1026A00000900190032003900348FEF7EFFB05B074
:1026B00000BD00000010024000080140704770B5E6
:1026C000044690F83C0000260D4601280FD001205A
:1026D00084F83C006AB1042A1DD0082A2FD00C2AA5
:1026E0003FD00126002084F83C00304670BD022017
:1026F00070BD206801F08CF82068816941F0080104
:1027000081612068816921F004018161206881690B
:102710002A69114311E0206801F0A2F8206881695C
:1027200041F4006181612068816921F480618161E7
:10273000206881692A6941EA02218161D2E7206823
:1027400001F0BAF82068C16941F00801C161206850
:10275000C16921F00401C1612068C1692A6911437E
:1027600011E0206801F0D4F82068C16941F40061EB
:10277000C1612068C16921F48061C1612068C169BB
:102780002A6941EA0221C161ACE710B5040003D017
:1027900094F83D0010B107E0012010BD002084F83E
:1027A0003C00204600F01EF8022084F83D00211D68
:1027B000206800F075FF012084F8460084F83E0090
:1027C00084F83F0084F8400084F8410084F8420017
:1027D00084F8430084F8440084F8450084F83D0000
:1027E000002010BD38B505460068B0F1804F29D1F2
:1027F0001548C16941F00101C161C069144C00F084
:1028000001000090114820601020606000208021AD
:10281000C4E902014900C4E90401A061E061204665
:10282000FEF7BCFA08B1FEF79DF9AC622C630022FA
:1028300011461C206562FEF7BFFCBDE838401C2035
:10284000FEF7ACBC38BD0000001002408000024022
:1028500030030020704770472DE9F04117460D0006
:1028600004464FF000060CD0042D11D0082D16D0D0
:1028700094F84100022819D094F84100012818D09A
:102880007CE094F83E00022810D094F83E00F5E772
:1028900094F83F00022809D094F83F00EEE794F83E
:1028A0004000022802D094F84000E7E70220BDE88B
:1028B000F081002F62D0002B60D04649464ADFF8F5
:1028C0001CC102204DB1042D18D0082D27D084F84A
:1028D00041000C2D44D0012679E084F83E00606A66
:1028E0008162606A3946C262606AC0F830C022689C
:1028F000606A3432FEF780FA88BB21E084F83F003A
:10290000A06A8162A06A3946C262A06AC0F830C07B
:102910002268A06A3832FEF76FFA00BB15E084F82F
:102920004000E06A8162E06A3946C262E06AC0F84B
:1029300030C02268E06A3C32FEF75EFA78B909E0FE
:102940002068C16841F400711EE02068C16841F44C
:10295000806119E02068C16841F4006114E00DE075
:10296000206B8162206B3946C262206BC0F830C098
:102970002268206B4032FEF73FFA08B1012096E74B
:102980002068C16841F48051C16001222946206855
:1029900000F0BCFE12492068884203D1426C42F428
:1029A000004242642068884208D0B0F1804F05D0D0
:1029B0000C49884202D00C49884204D1816801F058
:1029C0000701062903D0016841F00101016030468A
:1029D0006DE700002737000885370008BD3700087D
:1029E000002C014000040040000800407047704780
:1029F000704710B504460068406994F84110C0F370
:102A0000C010212911D180B12068143050E8001F76
:102A100021F0800140E80012002AF5D1A06B08B136
:102A2000FEF7A2F8204601F061F82068406994F8AA
:102A30004210C0F38010222911D180B120681430D7
:102A400050E8001F21F0400140E80012002AF5D1B3
:102A5000E06B08B1FEF788F8204601F020F800206E
:102A600010BD7047F8B5016804460868CA684B692C
:102A700010F00F0F4FF0000559D003F0010602F4DB
:102A80009077374365D0C10705D0D10503D5616C78
:102A900041F001016164410705D5D90703D0616C9C
:102AA00041F002016164810705D5D90703D0616C4B
:102AB00041F004016164010707D502F020013143B0
:102AC00003D0616C41F008016164616C00293AD067
:102AD000800604D5900602D5204601F031F8206822
:102AE0004069616CC0F38010090700D460B32046D0
:102AF00000F0D5FF20684069400621D520681430D9
:102B000050E8001F21F0400140E80012002AF5D1F2
:102B1000E06BA8B16D494163E06BFEF749F800280E
:102B200011D0E06B416B01B0BDE8F040084783066F
:102B30000FD593060DD52046BDE8F84001F000B84A
:102B40002046FFF78EFFF8BD2046FFF78AFF656439
:102B5000F8BD266B2023012E7CD1C6067AD5D60679
:102B600078D508684868009048694FF0020640062A
:102B700040D5E16B086840680004000CE8D0A28DE5
:102B80008242E5D9E085886920282DD020680C3064
:102B900050E8001F21F4807140E80012002AF5D1AE
:102BA0002068143050E8001F21F0010140E80012B5
:102BB000002AF5D12068143050E8001F21F04001B0
:102BC00040E80012002AF5D184F8423025632068DD
:102BD0000C3050E8001F21F0100140E80012002ADC
:102BE000F5D1E06BFDF7C0FF6663A08DE18D401A63
:102BF00081B22AE0A08DE18D401A81B2E08D0028DB
:102C0000A6D00029A4D022680C3252E8000F20F48C
:102C1000907042E80007002FF5D12068143050E88A
:102C2000002F22F0010240E80027002FF5D184F8A0
:102C30004230256320680C3050E8002F22F010024B
:102C400040E80023002BF5D166632046FFF7D0FE55
:102C5000F8BDFFE705062BD5150629D594F84100E8
:102C60002128F5D1A068B0F5805F01D12069B0B10D
:102C7000206A411C2162216800784860E08C401E77
:102C80000004000CE084E3D12068C16821F08001D9
:102C9000C1602068C16841F04001C160D8E7206A86
:102CA0000088C0F308004860206A801C2062E5E7C5
:102CB0004006CDD55006CBD5CA68204622F040024A
:102CC000CA6084F8413000F0EFF8C1E755390008D8
:102CD00070B5040004D094F84100002510B106E05E
:102CE000012070BD84F84050204600F023F82420D5
:102CF00084F841002068C16821F40051C160204679
:102D000000F080FF2068016921F490410161206892
:102D1000416921F02A0141612068C16841F40051F4
:102D2000C1606564202084F8410084F84200656336
:102D3000002070BDF0B585B00024064600940194D3
:102D40000294039400682D49884255D12C4881692A
:102D500041F480418161816901F48041049181697C
:102D600041F0040181618069264D00F00400049067
:102D70004FF40070009002200190032003906946F8
:102D80002846FEF783F82815CDE9000401200290BB
:102D900069462846FEF77AF81C4D1B488027C5E98E
:102DA0000004C5E902472C616C61AC612846EC6106
:102DB000FDF7F4FF08B1FDF7D5FEF5636E62134D24
:102DC00011484435143801C5102091C50F4845F805
:102DD000104944306C61AC61EC61FDF7DFFF08B174
:102DE000FDF7C0FEB5630022114625206E62FEF796
:102DF000E3F92520FEF7D2F905B0F0BD0038014017
:102E0000001002400008014058000240BC030020AE
:102E100090F84230202B01D00220704721B11AB126
:102E20000023036300F04ABF0120704770477047DA
:102E300070B5044690F84100202801D0022070BDF2
:102E400049B342B32162A284E2840020606421235A
:102E500084F84130A56B114BAB62A56B104BEB6254
:102E6000A56B104B2B63A36B5863256813462A1D73
:102E7000A06BFDF7C1FF21686FF04000086020687B
:102E8000143050E8001F41F0800140E80012002A91
:102E9000F5D1002070BD012070BD0000533A00083C
:102EA000953A00086539000870477047FEE7000052
:102EB000F0B500230A24302537261F4611E000BF55
:102EC000B4EB107F02D905EB107C01E006EB107C1F
:102ED00001F813C001EB430C00015B1C8CF801707E
:102EE000DBB29342ECD3F0BD114808B5416941F023
:102EF000010141614069002200F00100009011468B
:102F00000E20FEF759F90E20FEF748F9002211466F
:102F10000F20FEF751F90F20FEF740F9002211466D
:102F20001120FEF749F9BDE808401120FEF736B937
:102F300000100240F0B585B00024264800940194AA
:102F400002940394816941F020018161816901F05B
:102F500020010491816941F004018161816901F0DE
:102F600004010491816941F00801816180691A4D71
:102F700000F008000490012210212846FEF776F8A0
:102F8000164E012211463046FEF770F80022062147
:102F90003046FEF76BF80C20CDE9000401246946A9
:102FA00028460294FDF772FF1020CDE900040327A4
:102FB000CDE9024769462846FDF768FF0720CDE9BD
:102FC0000004CDE9024769463046FDF75FFF05B0D2
:102FD000F0BD00000010024000080140000C01405C
:102FE000094810B5074901600421416040F6FF71AE
:102FF0008160FEF747F8002803D0BDE81040FDF7D8
:10300000B1BD10BD00300040480600200148FEF769
:1030100066B8000048060020104810B50E4901604F
:103020004FF48271416000218160C1604FF40072F1
:103030000161C0E905120822C0E90721416291023D
:1030400081620721C162FFF78BF8002803D0BDE839
:103050001040FDF787BD10BD0030014090020020F8
:1030600010B58AB0002407941C2168460894FDF727
:1030700064F915484FF08041C0E900145921C0E9B6
:10308000024104618461FFF780FB08B1FDF76AFD2E
:10309000079407A90C480894FFF702FA08B1FDF756
:1030A00061FD6020CDE900040294042269460648CF
:1030B0000494FFF704FB08B1FDF754FD0248FFF745
:1030C000D9FA0AB010BD0000E802002010B5114C7A
:1030D0000F480C2120604FF4165060600020A06063
:1030E000E060C4E90401A061E0612046FFF7F0FD63
:1030F00008B1FDF737FD2068C16841F01001C160DB
:10310000BDE81040FF2204490248FFF781BE0000DD
:1031100000380140740300204305002010B501F081
:10312000A1FE00220F49104801F014F908B1FDF783
:1031300019FD0E490C4801F0F1FA08B1FDF712FD36
:103140000B49094800F012FF08B1FDF70BFD0648D6
:1031500001F03AFB002803D0BDE81040FDF702BDA6
:1031600010BD000004000020540600205001002083
:1031700054000020FEE7FEE72DE9F84F044640F634
:103180008F7B48F60F794FF480684FF0000AC0E15A
:10319000B0F8441011F00F0539D030F82560310433
:1031A0007ED530F8251001EA0B0141F0800120F8AE
:1031B000251005EB850004EBC00797F8740107F5AF
:1031C000B47700286DD0F87802286BD0397822685F
:1031D00032F8210048F68F73184048F2C0031843B4
:1031E00022F821003978206830F82120B0F85030DA
:1031F00052047DD5022202EBC1015A1808EB4201AC
:10320000415A8905890D009173D03A89DFE0C906DA
:103210002DD4018801EA090141F4004101802068B0
:1032200004F12805B0F850302978022202EBC101E0
:103230005A1808EB4201405AC0F309006064E16B80
:103240000844E06300212046FEF707F894F82400C4
:1032500000289CD0A869002899D194F824002168FE
:1032600040F08000A1F84C0084F824A051E10188CE
:1032700004F5B4750A0521D5B0F850202B78062145
:1032800001EBC3010A4408EB4201405A04F52C71DA
:10329000C0F30903EB61EA88206802F0F7F802E066
:1032A000B0E070E080E02068018801EA0B0141F0A5
:1032B000800101802046FEF73AFC2AE10904D5D5B9
:1032C000018801EA0B0141F0800101802068B0F81B
:1032D00050202B78062101EBC3010A4408EB420180
:1032E000405A83059B0DEB6110D0696971B101E013
:1032F00061E05FE0EA88206802F0C8F8E96968697F
:103300000844686100212046FDF7B0FF2168088865
:103310000205ABD4C0F301300328A7D0B1F85000A8
:103320000844B0F80C14C1F30901A0F80C142A6980
:1033300000F20C403E2A09D95109D20600D1491E9B
:1033400002884FF4004343EA812109E0B2B15108F9
:10335000D20700D0491C02884FF6FF7303EA81218F
:103360000A430280216808884BF68F72104080F46F
:10337000405048F2800210430880CAE0018841F4BE
:1033800000410180EEE72068B0F850203B7806212C
:1033900001EBC3010A4408EB4201415A8905890D3A
:1033A000009118D0FA8812E0324639462046FDF7DF
:1033B000BBFF00900FE0062202EBC1015A1808EB98
:1033C0004201415A8905890D009104D07A897969B1
:1033D000009B02F05BF8F86900990844F86179698C
:1033E000009808447861B86918B139690098814239
:1033F00004D939782046FDF739FF03E039462068C3
:1034000001F0BFFD30062FD505EB850004EBC001B0
:10341000206830F8252002EA090242F4004220F830
:10342000252091F82B00283101281ED0F0056CD4FE
:103430002068B0F850300D78022202EBC5021A4421
:1034400008EB4202805A8A69C0F30900824255D9CA
:10345000121A8A6154D04A6902444A61CA69104406
:10346000C861206801F08DFD53E0C1F818A0087B09
:10347000524608B3700620D5487810B1012812D002
:103480003AE02068B0F8502010440A7800EB0210AF
:10349000B0F80424C2F30902A0F80424B0F804240C
:1034A00042F4004206E02068B0F8503018440B782F
:1034B00000EB0310A0F804241EE04B78206813B141
:1034C000012B11D018E0B0F8502010440A7800EB1E
:1034D0000210B0F80C24C2F30902A0F80C24B0F8D2
:1034E0000C2442F4004205E0B0F8503018440B7848
:1034F00000EB0310A0F80C24097802E0C1F818A032
:10350000E9B22046FDF7A9FE03E032462046FDF76A
:103510007EFF2068B0F8441009043FF539AE002062
:10352000BDE8F88F704738B50B460092044600227C
:10353000802100F009F8002804D0606D40F02000E0
:103540006065032038BD00002DE9F8431E46914612
:1035500088460446089DFDF78FFD401B351AFDF790
:103560008BFD074625480068C0F3CB30684338E040
:10357000701C37D0FDF780FDC01BA84203D215B1E7
:10358000009860B32CE02068416821F0E0014160C0
:103590006068B0F5827F0BD1A068B0F5004F02D013
:1035A000B0F5806F04D12068016821F0400101600E
:1035B000A06AB0F5005F09D12068016821F40051CC
:1035C00001602068016841F400510160012084F825
:1035D0005100002084F850000320BDE8F883002546
:1035E000401E00902068816838EA010004D0002164
:1035F0004945BDD10020F0E70121F9E77000002026
:10360000704710B5FDF772FDBDE8104001F074BFC2
:1036100030B593B028216846FCF78FFE14210AA824
:10362000FCF78BFE00240F94092000904FF48030AB
:103630001094119412944100CDE9010101210491EB
:1036400002250691CDE907504FF4E0100990684635
:10365000FEF7F6FB08B172B6FEE70F20CDE90A05CA
:103660004FF48060CDE90C4002210AA80E94FEF7C9
:1036700007FB08B172B6FEE710200F9012940FA856
:10368000FEF788FA002801D072B6FEE713B030BD0D
:10369000704700000148FEF739BF0000E802002033
:1036A000F0B50268164B174C174D4FF08047984203
:1036B00005D0B84203D0A04201D0A84203D122F0E5
:1036C00070064A683243984205D0B84203D0A042FF
:1036D00001D0A84203D122F44074CA6822434C6945
:1036E00022F08002224302608A68C2620A68826213
:1036F000984201D10969016301214161F0BD0000D7
:10370000002C0140000400400008004010B501F00A
:103710001F030121046A99408C430462016A9A40A4
:103720001143016210BD10B5446A0121626A8242F0
:1037300005D121778069F8B984F83E101CE0A26AAF
:10374000824206D1022222778069A8B984F83F100C
:1037500012E0E26A824206D104222277806958B9D7
:1037600084F8401008E0226B824205D108222277BB
:10377000806908B984F841102046FFF76BF80020F3
:10378000207710BD10B5446A616A814201D10120E1
:103790000DE0A16A814201D1022008E0E16A814284
:1037A00001D1042003E0216B814201D10820207760
:1037B0002046FFF750F80020207710BD10B5446A6E
:1037C0000121626A824203D1217784F83E1019E018
:1037D000A26A824204D10220207784F83F1011E0CF
:1037E000E26A824204D10420207784F8401009E084
:1037F000226B824204D10820207784F8411001E036
:1038000084F83D102046FEF77FFE0020207710BD93
:1038100030B5036A026A22F00102026242688469DA
:1038200024F073050C682C4323F002058B682B43AE
:103830000A4DA8420BD123F00805CB6822F4407250
:103840002B434D6923F0040315438A692A434260E0
:10385000846149684163036230BD0000002C01406F
:1038600030B5026A036A23F0100303624368846977
:103870000D6824F4E64444EA05248D6822F0200211
:1038800042EA05120B4DA8420ED1CD6822F080020B
:1038900042EA05124D6923F4406343EA85038D69CA
:1038A00022F0400243EA85034360846149688163F2
:1038B000026230BD002C014030B5036A026A22F476
:1038C000807202624268C46923F4007324F07305B5
:1038D0000C682C438D6843EA05230C4DA8420ED199
:1038E000CD6823F4006343EA05234D6922F4405276
:1038F00042EA05128D6923F4806342EA05124260B0
:10390000C4614968C163036230BD0000002C0140FE
:1039100030B5046A026A22F4805202624268C369C6
:103920000D6823F4E64343EA05238D6824F400542C
:1039300044EA0534064DA84204D14D6922F4804280
:1039400042EA85124260C36149680164046230BD85
:10395000002C014010B5406A0021C185C184FFF7E9
:1039600080F810BD70B5446A2068406994F8411031
:10397000C0F3C0100025212904D118B1E5842046E8
:1039800000F0B4F82068406994F84210C0F3801049
:10399000222904D118B1E585204600F080F8606C3A
:1039A00040F0100060642046FFF75BF870BD10B572
:1039B0000146406A096809684FF0000289062ED462
:1039C000C28501680C3151E8003F23F4807341E85F
:1039D0000034002CF5D10168143151E8003F23F088
:1039E000010341E80034002CF5D10168143151E89D
:1039F000003F23F0400341E80034002CF5D12021A2
:103A000080F84210016B012909D101680C3151E89D
:103A1000003F23F0100341E80034002CF5D142634D
:103A2000016B012902D0FFF701FA10BD818DFEF76D
:103A3000DFFF10BD10B5406A01214163016B012910
:103A400002D0FFF7F4F910BD818D4908FEF7D0FFD1
:103A500010BD10B50146406A09680968890616D488
:103A60000021C1840168143151E8002F22F0800246
:103A700041E80023002BF5D101680C3151E8002FFB
:103A800042F0400241E80023002BF5D110BDFFF7C2
:103A90000BFA10BD10B5406AFFF707FA10BD0168B8
:103AA0000C3151E8002F22F4907241E80023002BE2
:103AB000F5D10168143151E8002F22F0010241E8EC
:103AC0000023002BF5D1016B012909D101680C31CC
:103AD00051E8002F22F0100241E80023002BF5D11D
:103AE000202180F8421000210163704701680C31E9
:103AF00051E8002F22F0C00241E80023002BF5D14D
:103B0000202180F84110704710B50B4C94F8FE014D
:103B1000C00710D0B4F80002FF2800D9FF20C1B2BE
:103B2000064842680448FF30904794F8FE0120F0B0
:103B3000010084F8FE0110BD44040020AC6A0008B6
:103B400008B590F84210222901D0022008BD8268F1
:103B50004FF480539A4201D1016921B1816A9A429E
:103B60001BD04AB10AE00268816A5268C2F30802B7
:103B70000A80816A891C08E0026972B10268526891
:103B800002F07F020A70816A491C8162C18D491E60
:103B90000904090CC18503D01BE002685268F1E7F3
:103BA0000168CA6822F02002CA600168CA6822F46B
:103BB0008072CA6001684A6922F001024A612021CC
:103BC00080F8421000214163026B012A03D0FFF705
:103BD0002DF9002008BD016301680C3151E8002F68
:103BE00022F0100241E80023002BF5D101680A6899
:103BF000D20602D50A6849680091818DFEF7F8FE69
:103C0000E7E7000070B5044600680169E26821F446
:103C10004051114301612169A0680843616908436B
:103C20002168CA6841F20C639A430243CA60206863
:103C30004169A26921F44071114341611E49206824
:103C4000884202D1FEF7C2F801E0FEF7AFF800EBC0
:103C5000C00101EB0012606864218000B2FBF0F348
:103C6000B3FBF1F36FF018067343B2FBF0F5B2FB50
:103C7000F0F605EB8305322303EB0515B5FBF1F5F3
:103C8000B6FBF1F605F0F00505EB0615B2FBF0F614
:103C9000B2FBF0F0B0FBF1F06FF01802504306EB0E
:103CA000800003EB0010B0FBF1F0216800F00F0082
:103CB0002844886070BD00000038014038B581623A
:103CC00004468285002013466064222284F8422044
:103CD000E56B1B4AAA62E56B1A4AEA62E56B1A4A6F
:103CE0002A63E26B50630A462168E06B091DFDF709
:103CF00083F82068016840680090206948B1206816
:103D00000C3050E8001F41F4807140E80012002A96
:103D1000F5D12068143050E8001F41F0010140E85F
:103D20000012002AF5D12068143050E8001F41F03D
:103D3000400140E80012002AF5D1002038BD000003
:103D4000AF390008353A000865390008124808B54F
:103D500000680168C943C90613D40168406800902F
:103D60000D48FEF746FE0D4800684068C0F1FF01AF
:103D70000B48A0F8001290F8FE1141F0010180F804
:103D8000FE110749FF22FF310348FFF741F8BDE864
:103D900008400148FEF766BE74030020BC03002003
:103DA000440400202DE9F041D0F8C032D0F8B82208
:103DB000CAB101EB810500EB85040026E7693FB13C
:103DC00003EBC5039B6BB7FBF3F503FB157323B143
:103DD000C2F814620020BDE8F08100231A46E661B3
:103DE00000F07FFCF6E70220F5E770B50546D0F855
:103DF000B84200F07AFBC4F80C02D5F8B80248B11A
:103E0000D5F8BC12D4F80402CA6804F503719047CF
:103E1000002070BD022070BD70B5044600268121CF
:103E200000F0B6FA002501212046E56200F0B0FA64
:103E300082212046C4F86C5100F0AAFA2564D4F817
:103E4000B80248B1D4F8BC0204F52E74406880472B
:103E5000206800F016FE2560304670BD10B5D0E930
:103E6000AE4159B194F80002FF2807D08B6894F84E
:103E7000012221469847FF2084F80002002010BD4F
:103E80000A2101800048704778000020432101800A
:103E900000487047C8000020432101800048704757
:103EA0008400002043210180004870470C0100205D
:103EB0002DE9F04104460026007C4FF400770125EF
:103EC00090B3402302228121204600F063FB40236F
:103ED000E56202220121204600F05CFB0823032258
:103EE00082212046C4F86C5100F054FB4FF4077057
:103EF000256400F0C7FDC4F8B802F8B10546D4F84F
:103F0000BC02006880470020C5F81402C5F81802FA
:103F1000207CD5F8042298B140230121204600F0EE
:103F200045FB3046BDE8F081FFE73B460222812198
:103F3000204600F02FFB3B46E562CAE70126F0E78A
:103F40003B46EAE710B5D0F8B81269B1027C002A06
:103F5000D1F8042205D04023012100F027FB0020E6
:103F600010BD4FF40073F7E7022010BD0246022097
:103F7000002902D00020C2F8BC127047D0F8B80265
:103F8000C0F8041200207047D0F8B802C0F8102220
:103F9000C0F80812002070472DE9FC410546D0F812
:103FA000B87200208DF80000ADF8040006460878CD
:103FB0000C4610F0600121D020293BD1E288AAB143
:103FC0000006607807D5D5F8BC128B68394698474B
:103FD000E288394626E087F80002A07987F80102D6
:103FE000E2883946284600F06AF828E0D5F8BC1285
:103FF000607800228B682146984720E0607820B1E5
:104000000A2809D00B2815D110E095F89C02032846
:1040100010D1022201A905E095F89C02032809D1DC
:1040200001226946284600F064F808E095F89C02F1
:10403000032804D02146284600F036F802263046F0
:10404000BDE8FC8110B5D0F8B812A1B1D1F81422A6
:104050000AB1012010BD0122C1F81422D1F81022AA
:104060000263B1F8102293B2D1F80822812100F046
:1040700038FB002010BD022010BD10B5D0F8B422CE
:1040800052689047002010BD134610B50A46002123
:1040900000F08CFA002010BD134610B50A4600212E
:1040A00000F01FFB002010BD10B50446802100F079
:1040B000FDFA2046BDE81040002100F0F7BA10B527
:1040C0000323C0F85C21C0F89432C0F86021134685
:1040D0000A46002100F06AFA002010BD10B5052143
:1040E0000023C0F894121A46194600F05FFA002027
:1040F00010BD10B50223C261C0F8943202621346AB
:104100000A46002100F0EDFA002010BD10B5042190
:104110000023C0F894121A46194600F0E2FA002073
:1041200010BD000010B50A46024903A000F0E2F8F5
:10413000004810BD1809002043444320436F6E66B9
:1041400069670000122008800048704724000020A2
:1041500010B50A46024903A000F0CCF8004810BD93
:104160001809002043444320496E746572666163F8
:1041700065000000042008800048704720000020EF
:1041800010B50A46024903A000F0B4F8004810BD7B
:104190001809002053544D6963726F656C65637430
:1041A000726F6E696373000010B50A46024903A07E
:1041B00000F0A0F8004810BD1809002053544D33FA
:1041C00032205669727475616C20436F6D506F7246
:1041D0007400000010B51A2008800A480168001D0C
:1041E0000468001D0068081809D008220649FEF777
:1041F0005FFE0549042210312046FEF759FE0248B1
:10420000801E10BDE8F7FF1F3A000020F8B50446F5
:104210000020ADF8000048880D46010A082948D260
:10422000DFE801F04704091747473C45D4F8B012CE
:10423000207C0A6819E0207C02260028D4F8B40209
:1042400005D0C16A68468847014646703EE0816AEB
:10425000F8E7C0B206282CD2DFE800F0030A1014F9
:10426000181CD4F8B002426805E0694690471CE08B
:10427000D4F8B0028268E2B1207CF6E7D4F8B0024C
:10428000C268F8E7D4F8B0020269F4E7D4F8B002E3
:104290004269F0E7D4F8B0028269ECE7207C40B9CB
:1042A000D4F8B402416B6846884701460EE0207C92
:1042B00020B129462046FFF7F7FEF8BDD4F8B40236
:1042C000016B68468847014607204870BDF800002A
:1042D00048B1EA8852B1824200D90246ADF80020C6
:1042E0002046FFF706FFE8880028E6D12046FFF7C2
:1042F0000DFFF8BD70B5002300281ED00446002530
:1043000002E06D1CEDB2641C2678002EF9D1022467
:1043100004EB450414801278CA545B1C0322CA546F
:1043200000245B1C06E0CA545B1CDAB28C54521C9D
:10433000D3B2401C0278002AF5D170BD01004FF0C5
:10434000000004D0012901D0022901D002207047C9
:104350000120704710B580B1D0F8B43213B10023FA
:10436000C0F8B43209B1C0F8B012012180F89C1233
:10437000027000F0BFF8002010BD022010BD10B583
:10438000D0F8C002FCF7A2FFBDE81040FFF7D6BF8F
:1043900010B5D0F8C002FCF773FFBDE81040FFF77E
:1043A000CDBF2DE9F0411746044651B1D4F8B4020F
:1043B00042691AB194F89C02032851D00220BDE84A
:1043C000F081D4F89432002504F11400022B03D0BC
:1043D000042B3AD0C3B33CE0D0E903639E4207D933
:1043E000F11AC1608AB239462046FFF755FE12E045
:1043F0008068B0FBF3F103FB110199B9984211D326
:10440000D4F8981288420DD2002211462046FFF7B8
:1044100043FEC4F8985200231A461946204600F07D
:10442000C5F816E0D4F8B402C16829B194F89C022A
:10443000032801D1204688478021204600F036F924
:104440002046FFF74BFE04E0FFE78021204600F006
:104450002DF994F8A002012804D184F8A05201E0BB
:10446000204690470020AAE770B51546044649B19A
:10447000D4F8B40282691AB194F89C02032830D0AF
:10448000022070BDD4F8941204F5AA70032902D05A
:1044900005291ED027E0D0E903218A420BD9531AFF
:1044A000C3600846834200D303469AB22946204699
:1044B000FFF7EAFD17E0D4F8B402016929B194F8D6
:1044C0009C02032801D1204688472046FFF71EFEA4
:1044D00009E000200146C4F89402204600F0E6F806
:1044E00001E020469047002070BDD0F8C002FDF7E3
:1044F0002AB9000010B504461C481D49C0F8EC421A
:10450000C4F8C002016008214160022181600021DD
:104510008161C1610162FDF74FFA08B1FCF722FB2E
:104520000022D4F8C0021823114604F53074FCF7B9
:1045300075FE5823002280212068FCF76FFEC023FF
:10454000002281212068FCF769FE4FF48873002265
:1045500001212068FCF762FE4FF480730022822163
:104560002068FCF75BFE002010BD00002416002030
:10457000005C00400A0601F07F01D0F8C00201EBA8
:10458000810100EBC10002D590F82A00704790F835
:104590006A01704710B51C461346D0F8C002224687
:1045A000FDF7DAF8BDE81040FFF7C8BE10B5D0F847
:1045B000C002FDF7FEF8BDE81040FFF7BFBE70B5C2
:1045C0000022044640231146FFF7E4FF4026012560
:1045D000C4F864613346002280212046C4F8585153
:1045E000FFF7D8FF6662A56184F89C520020C4F8EA
:1045F00094026060C4F8A402D4F8B80228B1D4F8D8
:10460000B4020021426820469047002070BD90F817
:104610009C12042903D190F89D1280F89C1200206E
:10462000704710B590F89C12032904D1D0F8B41249
:10463000C96901B18847002010BD0174002070478E
:1046400010B5D0F8C002FDF75EFABDE81040FFF7E4
:1046500075BE70B5044600F52A70054600F04AF8AC
:104660000120C4F89402B4F8AE02C4F8980294F899
:10467000A80210F01F010AD001290DD0022910D084
:1046800000F08001204600F011F8002070BD29469E
:10469000204600F09EF8F8E72946204600F0CAF9C7
:1046A000F3E72946204600F01DF9EEE710B5D0F8F3
:1046B000C002FDF795F8BDE81040FFF73FBE10B50A
:1046C000D0F8C002FDF73AFABDE81040FFF736BE59
:1046D00090F89C1280F89D12042180F89C12002012
:1046E000704710B5D0F8C002FDF7B3F8BDE8104030
:1046F000FFF724BE0A7802704A7842708A78CB7835
:1047000002EB032242800A794B7902EB032282807A
:104710008A79C97902EB0121C180704702460020E5
:1047200011B1C2F8B41270470220704710B5D0F82A
:10473000B42202241AB11268904700B9002420461E
:1047400010BD000070B50E461E4D897804462970D4
:10475000012931D894F89C0202280BD003280FD0ED
:1047600031462046FFF7A0FC29782046BDE870407E
:10477000FFF783BCD9B10320616084F89C0209E093
:1047800071B16068884212D0C1B22046FFF775FC53
:10479000297861602046FFF7C9FF02280CD006E0A7
:1047A000022084F89C0220466160FFF766FC2046E8
:1047B000BDE87040FFF7AABC31462046BDE8704016
:1047C000FFF772BC7400002010B5FFF778FF0020DF
:1047D00010BD2DE9F0410A78002612F0600208D0E1
:1047E000202A01D0402A70D1D0F8B4229268904794
:1047F0006DE04B78002201250A2B66D2DFE803F03A
:10480000405D6557650805652C29FFF7FFFC5EE0F4
:1048100004468888D8B9C888C8B94888802816D27C
:1048200000F07F0794F89C02032810D084F89E7251
:1048300039462046FFF704FF2046FFF767FC1FB10B
:10484000022084F89C0242E084F89C523FE020461B
:104850003BE0FFF777FF3AE0CB88012B35D190F8AA
:104860009C32012B04D0022B02D0032B2DD104E06B
:104870008260012200F1080116E00122011D13E00F
:1048800090F89C22012A03D0022A01D0032A1CD1CD
:10489000CA88022A19D1C560D0F8A41209B103212F
:1048A000C160022200F10C01FFF723FC0FE04988F0
:1048B00001290CD1C0F8A45211E090F89C32012BD0
:1048C00008D0022B06D0032B04D0FFF7EDFB3046B7
:1048D000BDE8F08149880129F9D1C0F8A422FFF789
:1048E00015FCF4E72DE9F0410A460446107800274C
:1048F000097910F060030AD0202B01D0402B50D151
:10490000D4F8B40211468368204698478FE0C0F37C
:104910004110012806D05078D0B301282AD00328AE
:104920003FD107E0D4F8B402114683682046BDE8C1
:10493000F041184794F89C02022802D0032872D153
:104940000AE071B380296ED02046FFF7AFFE8021C8
:104950002046FFF7ABFE6AE0508838B931B18029B4
:1049600004D0D08810B92046FFF7A0FE2046FFF7FC
:10497000CDFB5CE094F89C020228E2D0032852D1DF
:10498000508898BB4806F1D02046FFF7F8FCEDE7C9
:10499000FFE794F89C020026022803D0032842D1A6
:1049A00012E040E009B180293DD1080601F07F0006
:1049B00000EB800004EB800101D5143101E001F52A
:1049C000AA7102220E602AE0080601F00F0000EB37
:1049D000800004EB80000AD5806920B301F07F00DD
:1049E00000EB800004EB800514350BE01FE0D0F8ED
:1049F0005801C0B101F07F0000EB800004EB80059E
:104A000005F5AA7541B1802906D02046FFF7B2FD11
:104A100010B10120286000E02E60022229462046C5
:104A2000FFF767FB03E011462046FFF73DFB3846E2
:104A3000BDE8F08170B5054608780C4610F06000BE
:104A400003D0202801D0402816D195F89C020128D7
:104A500003D0022801D003280ED1207901280BD8D9
:104A6000D5F8B402826828469047E188014306D110
:104A70002846FFF74BFB02E02846FFF715FB002016
:104A800070BD704700487047041400202DE9F047BE
:104A90000C78002630F8243048F68F121340CA787C
:104AA000002A78D0012A7CD0022A02D0032A75D0AD
:104AB000012648F28002134320F824300D7830F8A4
:104AC000253048F68F7423402B43134320F82530BC
:104AD0000D7B48F2C00948F6BF734CF2800A4BF6D2
:104AE0008F77EDB3CD7891F800C0022D30F82C50BF
:104AF0007DD048F68F6805EA0805154320F82C504C
:104B0000B0F8505091F800C0054405EB0C15B1F811
:104B100008C02CF0010CA5F800C4B0F8505091F872
:104B200000C0054405EB0C15B1F80AC02CF0010CCF
:104B3000A5F808C44D78002D7ED00D7830F825C03A
:104B40005FEA4C4C07D530F825C00CEA040C4CEA5F
:104B50000A0C20F825C091F800C030F82C5000E075
:104B600022E06D0606D530F82C50254045EA0905AF
:104B700020F82C50CC780D78012C30F8254004EA30
:104B800003047CD084F02003134320F82530C1E0D7
:104B900001E006E002E043F400738AE743F4C063F7
:104BA00087E743F4806384E74D784DB3B0F8505005
:104BB0000F78054405EB0715CF8827F00107A5F806
:104BC00000740F7830F827506D0606D530F827505E
:104BD000254045EA090520F82750CC78012C07D05C
:104BE0000C7830F82410194081F0200104E064E0D2
:104BF0000C7830F824101940114320F8241090E06C
:104C0000B0F850300D78034403EB0513CD8825F040
:104C10000105A3F80854B0F850300D78034403EBB5
:104C20000513B3F80C54C5F30905A3F80C540D692A
:104C300003F20C433E2D00E045E00BD94FEA551C32
:104C4000ED0601D1ACF1010C1D884FF4004848EA93
:104C50008C2C0BE035B34FEA550CED0701D00CF16D
:104C6000010C1D884FF6FF7808EA8C2C45EA0C05EC
:104C70001D800D7830F825305B0408D500E046E053
:104C800030F82530234043EA0A0320F8253009781C
:104C900061B130F821303B4083F40053134320F8D6
:104CA00021303EE01D8845F40045E1E701883940A8
:104CB00081F440511143018033E0254048F28018CF
:104CC00045EA08051AE791F800C030F82C506D0449
:104CD00006D530F82C50254045EA0A0520F82C501E
:104CE00091F800C030F82C506D0606D530F82C50E5
:104CF000254045EA090520F82C500D7830F825406C
:104D00003C4084F44054144320F8254070E7144399
:104D100020F825400B7830F823103940114320F853
:104D200023103046BDE8F087002070472DE9F0439E
:104D300091F80C804F780A7848F6BF7C4BF68F7953
:104D400048F2800348F2C0054CF2800648F68F74A2
:104D5000B8F1000F28D0002F30F822704FEA4747F3
:104D600048D0002F05DA30F822702740374320F86A
:104D700022700A7830F822707F0605D530F822704C
:104D800027402F4320F822700D7830F8252022404C
:104D9000324320F825200C7830F8242002EA0C0257
:104DA0001A4320F824201AE07FB130F822607606FA
:104DB00005D530F8226026402E4320F822600A787C
:104DC00030F8221001EA0C010EE030F822506D0498
:104DD00005D530F822502540354320F822500A7876
:104DE00030F8221001EA0901194320F822100020AE
:104DF000BDE8F083002F05DA30F8227027403743F2
:104E000020F822700A7830F82260760605D530F84E
:104E1000226026402E4320F822600E7830F82620AB
:104E200022402A4320F826200C7830F8242002EA79
:104E300009021A4320F82420C1E70020704700200F
:104E40007047012120F8401F0021018081800182EC
:104E50000846704730F8401F21F43F410180002090
:104E60007047000010B5194C86B0206940F400006E
:104E70002061C820FBF7F8FF206920F400002061C2
:104E8000A06940F00400A061A069114C00F004008A
:104E900004904FF4C0500090012001900220029035
:104EA0000320039069462046FBF7F0FF0022E1143F
:104EB0002046FCF7DBF80022A1142046FCF7D6F8C8
:104EC0004FF49670FBF7D0FF06B010BD0010024003
:104ED000000801400020704730B50A7BB2BB4A7819
:104EE00048F68F7548F28004C2B10B7830F8232061
:104EF000520607D530F823202A4048F2C0052A433D
:104F000020F82320CA78012A20D00A7830F822100D
:104F100048F6BF73194081F0200114E00A7830F898
:104F200022305B0407D530F822302B404CF280054C
:104F30002B4320F822300A7830F822104BF68F737A
:104F4000194081F44051214320F82210002030BD47
:104F500010B54A780978002A48F2800330F82120F9
:104F600005D048F6BF74224082F0100204E04BF6F0
:104F70008F74224082F480521A4320F821200020AE
:104F800010BD2DE9F0470D464B78097B04464FF0E4
:104F9000000948F68F7248F2800A4FF400474FF636
:104FA000FF78012B09D000296FD0E87802286DD056
:104FB00001286CD00120BDE8F087AE6928698642DF
:104FC00000D9064691B1E97802291ED0286A801BD3
:104FD0002862287834F820104906B4F8501021448B
:104FE00001EB001073D5A0F80C6416E1B3B2EA88A7
:104FF0002046696900F09CFAB4F8500029782044F2
:1050000000EB0110A0F804640DE1296A814277D910
:10501000297834F82100104048F28012104324F817
:105020002100286A801B2862287834F8201049065D
:10503000697871D511B101292AD030E0B4F8501047
:10504000214401EB0010B0F80C14C1F30901A0F8E1
:105050000C1400F20C403E2E07D97109F20600D163
:10506000491E028847EA812107E04EB17108F20724
:1050700000D0491C028808EA81210A4302800EE020
:10508000018841F40041018009E0F1E020E195E16F
:10509000B4F85020111901EB0010A0F80C646A89D3
:1050A000B3B22046696900F043FA68693044686128
:1050B0002969286A884202D9801B286202E00646D4
:1050C000C5F82090687818B101282BD032E02FE085
:1050D000B4F850002978204400EB0110B0F8041413
:1050E000C1F30901A0F8041400F204403E2E08D9CF
:1050F0007109F20600D1491E028847EA812108E0C1
:10510000A1E056B17108F20700D0491C028808EAF4
:1051100081210A4302800DE00EE0018841F4004144
:10512000018007E0B4F850002978204400EB01101A
:10513000A0F804642A8971E011B1012927D02DE07B
:10514000B4F85010214401EB0010B0F80414C1F37E
:105150000901A0F8041400F204403E2E07D9710999
:10516000F20600D1491E028847EA812107E04EB1CC
:105170007108F20700D0491C028808EA81210A431D
:1051800002800BE0018841F40041018006E0B4F8A0
:105190005010214401EB0010A0F804642A89B3B236
:1051A0002046696900F0C4F968693044686129697A
:1051B000286A884202D9801B286202E00646C5F8A8
:1051C0002090687810B1012836D026E0B4F850005D
:1051D0002978204400EB0110B0F80C14C1F3090148
:1051E000A0F80C1400F20C403E2E07D97109F2060B
:1051F00000D1491E028847EA812107E04EB17108BB
:10520000F20700D0491C028808EA81210A43028083
:1052100003E0018841F4004101806A89B3B220466D
:10522000696900F085F9297834F8210048F6BF72E1
:10523000104080F030000FE1B4F8501008192978C0
:1052400000EB0110CFE62A7834F8220048F68F638D
:10525000184040EA0A0024F82200B4F850002A78E6
:10526000204400EB02108BB2A0F804342A89D6E760
:10527000A9692869814202D9091AA96102E0084690
:10528000C5F81890B4F850102A78214401EB0211A7
:10529000B1F80C24C2F30902A1F80C2401F20C416C
:1052A0003E287DD94209C00600D1521E088847EA2F
:1052B00082220AE0088840F4004007E04208C00764
:1052C00000D0521C088808EA822210430880BBE004
:1052D00033BBB4F850002978204400EB0110B0F83B
:1052E0000414C1F30901A0F80414296900F2044070
:1052F0003E2907D94B09C90600D15B1E018847EA40
:10530000832307E041B14B08C90700D05B1C01882B
:1053100008EA8323194302E0018841F40041018037
:10532000687810B1012828D030E0B4F8500029780E
:10533000204400EB0110B0F80C14C1F30901A0F8EF
:105340000C14296900F20C403E2907D94B09C90603
:1053500000D15B1E018847EA832307E041B14B0877
:10536000C90700D05B1C018808EA8323194302E0C7
:10537000018841F40041018008E0B4F85010081998
:10538000297800EB0110298AA0F80C14E869C0B351
:10539000297834F82100430401D5430605D400E000
:1053A00046E044F2400318424ED134F82100104048
:1053B00048F2C002104324F8210045E0A969286999
:1053C000814202D9091AA96102E00846C5F818907D
:1053D00013BBB4F850102A78214401EB0211B1F844
:1053E0000424C2F30902A1F8042401F204413E2876
:1053F00008D94209C30600D1521E0B8847EA82220F
:1054000008E021E078B14208C30700D0521C0B88A5
:1054100008EA822213430B80697800293FF42EAFFB
:10542000012909D010E00A8842F400420A80F3E71B
:1054300000287FF443AF3DE7B4F8502011192A78D3
:1054400001EB0211A1F80C04297834F821004BF685
:105450008F72104080F4405040EA0A0024F8210086
:105460000020A8E50021A0F844104FF43F41A0F827
:1054700040100020704700000148FCF703BA00000C
:1054800024160020B0F844007047000010B500EB6F
:1054900042005C0800F5806009D000BF30F8042BA2
:1054A00001F8012B120A01F8012B641EF6D1DA076C
:1054B00001D00088087010BD0020704711B980210C
:1054C000A0F84C100020704710B5094C94F8180152
:1054D00000280CD0D4F80C01FF2800D9FF20C1B25D
:1054E0000448426802489047002084F8180110BD23
:1054F000180B0020AC6A00080C48D0F810110029E5
:1055000012D0D0F81011491EC0F81011D0F81011A7
:10551000002909D1A0F80011FF2180F81811D0F856
:1055200004014021FAF7E7BE70470000180B002085
:1055300010B55B1C00EB42005B0800F5806009D0F1
:1055400011F8012B11F8014B42EA042220F8042B38
:105550005B1EF5D110BDFEE7F8B5FBF78DFD2D4CB8
:105560002168401A642853D9FBF786FD20602A4839
:10557000FBF72BF8284C0546943C0023D4F88860B0
:105580001A4619461846B0476421072D23D2DFE892
:1055900005F0040B131A2830370000226423FF2182
:1055A0001046D4F8885005E000226423D4F88850CF
:1055B0001146FF20A8470EE0009184236022E421D9
:1055C000D4F8805022E0009184236022E421D4F8B2
:1055D00080500220A847D4F8900001B0BDE8F04008
:1055E0000047009184236022E4210420D4F88050F5
:1055F000F0E700910023FF221146D4F8805005E027
:105600000091E2232B22D4F880508A210020E1E788
:10561000F8BD0000000000202C02002008480521F1
:1056200020F87C1F074901610749816007494160F3
:105630000749C1600749416101489430FAF7B8BF92
:105640009801002059560008295700086D57000896
:10565000F1560008CD5A0008F0B500240C701B4D1F
:1056600014701C70B5F87C4084422ED3002400EBEB
:10567000400C802004EBCC062E4492F800E0F77832
:105680003D2F02D320FA04F700E000274EEA070E70
:1056900082F800E0F77A91F800E03D2F02D320FA7B
:1056A00004F700E000274EEA070E81F800E0F67CE0
:1056B0001F783D2E02D320FA04F600E0002637437F
:1056C000641CE4B21F70082CD4D3F0BD98010020F4
:1056D0000907090E002804DB00F1E02080F800141F
:1056E000704700F00F0000F1E02080F8141D7047B3
:1056F0002DE9F8431E461746884681460024094D89
:1057000009E00096D5F880C03B464246494620460F
:10571000E047641CA4B2B5F87C00A042F1D8BDE813
:10572000F8830000980100202DE9F84390460F46C9
:10573000002504460C4E11E06420009005EB450066
:10574000C119D6F880C08B784A78395C2046E0478A
:105750006D1CADB2454505D8641CA4B2B6F87C00FA
:10576000A042E9D8BDE8F88398010020FFB52B4C92
:105770008BB00546B4F87C00149EA8424BD302A916
:1057800004A8CDE9000103AB9DF838209DF8341042
:105790009DF8300000F0F8F8304600F0ADFF0299B7
:1057A00000F0F2FF1E4900F075FE024602900EA9BD
:1057B0000DA8CDE90001DDE903010CAB00F032F8E2
:1057C00000209DF834709DF830609DF838308022BC
:1057D00005EB450C22FA00F1394202D04FF03D0EA4
:1057E00001E04FF01C0E00EBCC052544314285F85A
:1057F00003E002D04FF03D0E01E04FF01C0E85F8A3
:105800000BE0194201D03D2100E01C21401CC0B238
:10581000E9740828DED30FB0F0BD00009801002025
:105820000000C8422DE9FF5F1C46DDE90E65824697
:1058300000F026FF3C2190FBF1F0062190FBF1F2F5
:1058400001FB1200814600F022FC074688465046C4
:1058500000F086FD00224A4B00F094FA3A46434697
:1058600000F094FC00F0B4F907464FF07E58404633
:10587000019901F091F8029900F086FF83463846BD
:10588000019900F081FF414601F07BF8029900F098
:105890007BFF82463946404601F07EF8019900F0D0
:1058A00073FF414601F06DF8029900F06DFFDFF8DB
:1058B000D4800746B9F1060F60D2DFE809F0030D86
:1058C0001E2F394A4146029800F05EFF00F0F4FEB8
:1058D00020704146384608E04146504600F054FFEB
:1058E00000F0EAFE20704146029800F04DFF00F003
:1058F000E3FE3070414658463BE04146584600F0D2
:1059000043FF00F0D9FE20704146029800F03CFFB2
:1059100000F0D2FE3070414638462AE041465846F3
:1059200000F032FF00F0C8FE20704146504608E00B
:105930004146384600F028FF00F0BEFE2070414688
:10594000584600F021FF00F0B7FE30704146029843
:105950000FE04146029800F017FF00F0ADFE207006
:105960004146584600F010FF00F0A6FE3070414658
:10597000504600F009FF00F09FFE2870BDE8FF9F31
:1059800000004E4000007F432DE9F05F1F46904627
:105990000C46DDF828A000F0AFFE494E314600F07D
:1059A00079FD0546204600F0A7FE314600F072FD65
:1059B0000446404600F0A0FE314600F06BFD06466E
:1059C0002146284600F0ACFF01D2284600E02046E0
:1059D0008046314600F0A4FF01D2404600E0304648
:1059E00080462146284600F09BFE01D2284600E072
:1059F00020468146314600F093FE01D2494600E040
:105A00003146404600F0C8FF814610F0FF4F4FF08E
:105A1000000B11D02946404600F0FEFD1BD1314657
:105A2000204600F07DFF3146204608D800F0B4FF44
:105A3000494600F02FFD2DE0C7F800B02EE000F041
:105A4000ABFF494600F026FD1E4900F09DFE1E49B1
:105A500000F0B2FC21E02146404600F0DDFD09D116
:105A60002946304600F098FF494600F013FD4FF0FC
:105A700080410DE03146404600F0CEFD0ED121467A
:105A8000284600F089FF494600F004FD4FF08141AF
:105A900000F092FC0B4900F077FE386018F0FF4FE1
:105AA0000AD04146484600F0F5FCCAF800000B99C0
:105AB000C1F80080BDE8F09FCAF800B0F7E7000029
:105AC00000007F43000070420000B4437C23024A80
:105AD00004210248FCF7C0BE98010020E802002023
